:100000000C9434000C943E000C943E000C943E0082
:100010000C943E000C943E000C943E000C943E0068
:100020000C943E000C943E000C943E000C943E0058
:100030000C943E000C943E000C943E000C943E0048
:100040000C943E000C943E000C943E000C943E0038
:100050000C943E000C943E000C943E000C943E0028
:100060000C943E000C943E0011241FBECFEFD8E04C
:10007000DEBFCDBF0E9440000C9459000C940000DC
:10008000209A52985A9A81E0982F88274A99839506
:100090009130D1F78111F8CF25B1922795B92FEF83
:1000A00033EC99E0215030409040E1F700C000006F
:0600B000EBCFF894FFCF36
:00000001FF
