:100000000C9434000C9449000C9449000C94490061
:100010000C9449000C9449000C9449000C9449003C
:100020000C9449000C9449000C9449000C9449002C
:100030000C9449000C9449000C9449000C9449001C
:100040000C9449000C9449000C9449000C9449000C
:100050000C9449000C9449000C9449000C944900FC
:100060000C9449000C94490011241FBECFEFD8E036
:10007000DEBFCDBF14E0A0E0B1E0EAEDF5E002C0E4
:1000800005900D92A633B107D9F70E94B2010C94E6
:1000900022020C94000080E190E09093C5008093D0
:1000A000C400E0ECF0E080818260808388E180938E
:1000B000C10086E08093C2000895FC0190819115F3
:1000C00051F031968091C00085FFFCCF9093C6001F
:1000D00091919111F7CF0895887F893C30F4E82FF2
:1000E000F0E0EC5DFD4F0C941C02883F31F08EED8A
:1000F00092E0089589E392E008958CEC93E00895EE
:1001000081EC92E0089588EE91E008958BEC91E007
:1001100008958CEA91E008958EE891E0089586E0D4
:1001200092E008958EE691E008958EE491E00895BE
:100130008CE291E008958CE091E0089580E091E0F8
:10014000089581EA92E0089581E892E0089582E6B8
:1001500092E0089589E192E008958BEA93E0089592
:1001600080E993E0089586E793E0089589E593E0B8
:1001700008958DE393E008958FE093E0089584EF70
:1001800092E008958DEE93E0089586EF93E0089550
:10019000CF93DF93CDB7DEB763970FB6F894DEBF8A
:1001A0000FBECDBF91E1EAE0F4E0DE0111960190CF
:1001B0000D929A95E1F71A8A1B8A982F92959F7053
:1001C000FE013196E90FF11D20812A8B211559F08E
:1001D000FE0173969091C00095FFFCCF2093C6005E
:1001E00021912111F7CF8F70FE013196E80FF11D9B
:1001F00090819A8B911559F0FE0173968091C00001
:1002000085FFFCCF9093C60091919111F7CF639633
:100210000FB6F894DEBF0FBECDBFDF91CF9108952A
:1002200088E48093B800E9EBF0E080818C7F8083E4
:1002300084E08093BC000895ECE1F4E099E68091BD
:10024000C00085FFFCCF9093C600919184E0E83216
:10025000F807A9F784EA8093BC008091BC0087FF6F
:10026000FCCF8091B900887F0E94C8008091C000B7
:1002700085FFFCCF8CE28093C6008091C00085FF93
:10028000FCCF80E28093C6008091B9000E946C0090
:10029000FC019081911551F031968091C00085FF4D
:1002A000FCCF9093C60091919111F7CF0895ECE1A6
:1002B000F4E029E69091C00095FFFCCF2093C600A2
:1002C000219194E0E832F907A9F78093BB0084E814
:1002D0008093BC008091BC0087FFFCCF8091B90067
:1002E000887F0E94C8008091C00085FFFCCF8CE20F
:1002F0008093C6008091C00085FFFCCF80E2809390
:10030000C6008091B9000E946C00FC01908191159B
:1003100051F031968091C00085FFFCCF9093C600CC
:1003200091919111F7CF0895CF93DF9300D0CDB77E
:10033000DEB784E98093BC001A82198289819A8190
:100340008436910554F489819A8101969A83898330
:1003500089819A8184369105B4F30F900F90DF91D3
:10036000CF91089500D000D000D0CDB7DEB780E1A6
:1003700090E09093C5008093C4008091C00082609B
:100380008093C00088E18093C10086E08093C20022
:1003900088E48093B8008091B9008C7F8093B90085
:1003A00084E08093BC0014E9E9E2F4E094E58091F4
:1003B000C00085FFFCCF9093C600919124E0E53307
:1003C000F207A9F70E941C0180E70E9457011093D1
:1003D000BC001E821D828D819E818436910554F45D
:1003E0008D819E8101969E838D838D819E81843631
:1003F0009105B4F319821A821B821C8289819A8129
:10040000AB81BC8180349244AF40B1056CF68981E8
:100410009A81AB81BC810196A11DB11D89839A830C
:10042000AB83BC8389819A81AB81BC818034924447
:10043000AF40B10564F3B8CFEE0FFF1F0590F49104
:10044000E02D0994F894FFCF9E00770077007700A5
:100450007700770077007700C50077007700770096
:100460007700770077007700C20077007700770089
:1004700077007700770077009B00770077007700A0
:100480007700770077007700980077007700770093
:100490007700770077007700950077007700770086
:1004A0007700770077007700920077007700770079
:1004B00077007700770077008F007700770077006C
:1004C00077007700770077008C007700770077005F
:1004D0007700770077007700890077007700770052
:1004E0007700770077007700860077007700770045
:1004F0007700770077007700830077007700770038
:10050000770077007700770080007700770077002A
:1005100077007700770077007A0077007700770020
:100520007700770077007700BF00770077007700CB
:100530007700770077007700BC00770077007700BE
:100540007700770077007700B900770077007700B1
:100550007700770077007700B600770077007700A4
:100560007700770077007700B30077007700770097
:100570007700770077007700B0007700770077008A
:100580007700770077007700AD007700770077007D
:100590007700770077007700AA0077007700770070
:1005A00077007700770077007A0077007700770090
:1005B0007700770077007700A70077007700770053
:1005C0007700770077007700A40077007700770046
:0A05D0007700770077007700A100A4
:1005DA00427573204572726F720A0D004D61737411
:1005EA006572205472616E736D69747465723A2013
:1005FA00536C6176652041434B0A0D004D6173745B
:10060A006572205472616E736D6974746572203AF2
:10061A0020536C617665204E41434B0A0D004D61B3
:10062A0073746572205472616E736D697474657245
:10063A00203A20446174612041434B0A0D004D6108
:10064A0073746572205472616E736D697474657225
:10065A003A2044617461204E41434B0A0D004D61BA
:10066A0073746572205265636569766572203A20F3
:10067A00536C6176652041434B0A0D004D617374DA
:10068A006572205265636569766572203A20536CFB
:10069A00617665204E41434B0A0D004D61737465C6
:1006AA0072205265636569766572203A20446174E6
:1006BA00612041434B0A0D004D61737465722052EB
:1006CA0065636569766572203A2044617461204EDB
:1006DA0041434B0A0D004172626974726174696F19
:1006EA006E204C6F73740A0D00536C61766520544A
:1006FA0072616E736D6974746572203A20536C610D
:10070A0076652041434B0A0D004172626974726139
:10071A0074696F6E204C6F737420696E20534C415C
:10072A002B522F572C20536C6176652041434B0A7C
:10073A000D00536C617665205472616E736D697435
:10074A00746572203A20446174612041434B0A0D5A
:10075A0000536C617665205472616E736D697474AE
:10076A006572203A2044617461204E41434B0A0D60
:10077A0000536C617665205472616E736D6974748E
:10078A006572203A204C61737420446174610A0DC9
:10079A0000536C61766520526563656976657220DF
:1007AA003A20536C6176652041434B0A0D00556E21
:1007BA006B6E6F776E2053746174757320436F6428
:1007CA00650A0D0047656E6572616C2043616C6C49
:1007DA00203A20536C6176652041434B0A0D004153
:1007EA0072626974726174696F6E204C6F737420DF
:1007FA00696E2047656E6572616C2043616C6C2C72
:10080A0020536C6176652041434B0A0D00536C619D
:10081A007665205265636569766572203A2044617F
:10082A0074612041434B0A0D00536C617665205276
:10083A0065636569766572203A2044617461204E69
:10084A0041434B0A0D0047656E6572616C20436136
:10085A006C6C203A20446174612041434B0A0D00BC
:10086A0047656E6572616C2043616C6C203A204466
:10087A00617461204E41434B0A0D00536C617665E9
:10088A00205265636569766572203A2053544F5049
:10089A002072656365697665640A0D004E6F207380
:1008AA007461746520696E666F726D6174696F6ECA
:1008BA0020617661696C61626C650A0D005245506F
:1008CA0045415445442053544152542061636B6E50
:1008DA006F776C656467650A0D00303132333435E1
:1008EA0036373839616263646566006932635F73FB
:1008FA0074617475733A200054455354494E472E17
:06090A002E2E0A0D000074
:00000001FF
