:100000000C9434000C9449000C9449000C94490061
:100010000C9449000C9449000C9449000C9449003C
:100020000C9449000C9449000C9449000C9449002C
:100030000C9449000C9449000C9449000C9449001C
:100040000C9449000C9449000C9449000C9449000C
:100050000C9449000C9449000C9449000C944900FC
:100060000C9449000C94490011241FBECFEFD8E036
:10007000DEBFCDBF11E0A0E0B1E0E2E5F4E002C0F8
:1000800005900D92A231B107D9F70E9402010C949C
:1000900027020C94000080E190E09093C5008093CB
:1000A000C400E0ECF0E080818260808388E180938E
:1000B000C10086E08093C20008959091C00095FF32
:1000C000FCCF8093C6000895CF93DF93CDB7DEB702
:1000D00061970FB6F894DEBF0FBECDBF91E1E0E0AF
:1000E000F1E0DE01119601900D929A95E1F7982FBB
:1000F00092959F70FE013196E90FF11D20818F705E
:10010000FE013196E80FF11D90818091C00085FFBE
:10011000FCCF2093C6008091C00085FFFCCF909358
:10012000C6008091C00085FFFCCF80E28093C600AE
:1001300061960FB6F894DEBF0FBECDBFDF91CF91B1
:10014000089588E48093B800E9EBF0E080818C7F2B
:10015000808384E08093BC00089584EA8093BC008F
:100160008091BC0087FFFCCF089584EC8093BC0095
:100170008091BC0087FFFCCF8091BB00089584E88C
:100180008093BC008091BC0087FFFCCF8091BB00B6
:1001900008958093BB0084E88093BC008091BC00EC
:1001A00087FFFCCF0895892B59F084E88093BC0029
:1001B0008091BC0087FFFCCF8091BB000C94640051
:1001C00084EC8093BC00F4CFCF93DF9300D0CDB705
:1001D000DEB784E98093BC001A82198289819A81F2
:1001E0008436910554F489819A8101969A83898392
:1001F00089819A8184369105B4F30F900F90DF9135
:10020000CF91089500D000D0CDB7DEB780E190E067
:100210009093C5008093C4008091C0008260809359
:10022000C00088E18093C10086E08093C20088E42A
:100230008093B8008091B9008C7F8093B90084E0EE
:100240008093BC002FEF81EE94E0215080409040DD
:10025000E1F700C0000084EA8093BC008091BC00FC
:1002600087FFFCCF81E78093BB0084E88093BC00CC
:100270008091BC0087FFFCCF84E88093BC00809114
:10028000BC0087FFFCCF1091BB000E94E40013FD6F
:1002900036C084EA8093BC008091BC0087FFFCCF0D
:1002A00080E78093BB0084E88093BC008091BC0011
:1002B00087FFFCCF8EEB8093BB0084E88093BC006B
:1002C0008091BC0087FFFCCF88E08093BB0084E86E
:1002D0008093BC008091BC0087FFFCCF1092BB00D4
:1002E00084E88093BC008091BC0087FFFCCF0E9413
:1002F000E4008FE39CE90197F1F700C0000084EA75
:10030000C82E90E7692E24E8F22E3CEA732E43E3D0
:10031000842E54E9D52E61E7962E74ECE72EFAE090
:10032000AF2EFDE0BF2EC092BC008091BC0087FFC5
:10033000FCCF6092BB00F092BC008091BC0087FFB4
:10034000FCCF7092BB00F092BC008091BC0087FF94
:10035000FCCF8092BB00F092BC008091BC0087FF74
:10036000FCCF1092BB00F092BC008091BC0087FFD4
:10037000FCCFD092BC001C821B828B819C81843676
:10038000910554F48B819C8101969C838B838B8196
:100390009C8184369105B4F39FEF27EE83E0915062
:1003A00020408040E1F700C00000C092BC00809176
:1003B000BC0087FFFCCF9092BB00F092BC00809104
:1003C000BC0087FFFCCF00E010E0E092BC00809111
:1003D000BC0087FFFCCF8091BB000E9464000F5FD0
:1003E0001F4F0630110589F7F092BC008091BC00C8
:1003F00087FFFCCF8091BB000E946400D092BC00BC
:100400001A82198289819A818436910554F48981EE
:100410009A8101969A83898389819A81843691058C
:10042000B4F38091C00085FFFCCFA092C6008091FC
:10043000C00085FFFCCFB092C6009FEF27EA81E69F
:10044000915020408040E1F700C000006CCFF8944C
:02045000FFCFDC
:100452003031323334353637383961626364656638
:02046200000098
:00000001FF
